:020000040800F2
:10000000005000200D010008B5430008B943000866
:10001000BD430008C1430008C543000800000000BC
:10002000000000000000000000000000C9430008BC
:10003000CD43000800000000D1430008D54300086C
:100040005101000851010008510100085101000848
:100050005101000851010008510100085101000838
:10006000510100085101000851010008E143000856
:100070005101000851010008510100085101000818
:100080005101000851010008510100085101000808
:10009000D94300085101000851010008510100082E
:1000A00051010008510100085101000851010008E8
:1000B00051010008510100085101000851010008D8
:1000C00051010008510100085101000851010008C8
:1000D000510100085101000851010008DD430008EA
:1000E0005101000851010008510100080000000002
:1000F0000000000000000000000000000000000000
:0C01000000000000000000005FF808F1A3
:10010C00002103E00A4B5B584350043109480A4B69
:10011C0042189A42F6D3094A02E0002342F8043B03
:10012C00074B9A42F9D300F00FF803F0FFF9704730
:10013C005C62000800000020F0000020F0000020AD
:10014C00B84D0020FEE7000030B400244FF41F052A
:10015C003A4B3B4A196882B041F001011960596869
:10016C0018460A405A601A6822F0847222F48032CF
:10017C001A601A6822F480221A605A6822F4FE026D
:10018C005A609D60009401941A6842F480321A609F
:10019C0003E0009BB3F5A06F09D0036803F40033B0
:1001AC000193009B01330093019B002BF1D0234B57
:1001BC001B6813F4003318BF01230193019B012B1F
:1001CC0006D04FF000621F4B9A6002B030BC7047F3
:1001DC001D491A4B08681A4640F010000860086860
:1001EC0020F007000860086840F0020008605968B9
:1001FC00596059685960596841F48061596059686F
:10020C0021F47C115960596841F4E811596019685E
:10021C0041F08071196013689B01FCD55368074944
:10022C0023F003035360536843F0020353604B689D
:10023C0003F00C03082BFAD1C3E700BF00100240F7
:10024C000000FFF800ED00E000200240114A536866
:10025C0003F00C03082B09D00F4B0E4A0F495268C0
:10026C00C2F303128A5CD3400B6170475368516828
:10027C00C3F38343C90303F1020306D55268920307
:10028C0003D4054A02FB03F3E7E7054A02FB03F339
:10029C00E3E700BF0010024000127A0000000020CB
:1002AC0000093D0070B4058C1B4E25F001052D0492
:1002BC002D0C0584048B42EA031324F0F30424046C
:1002CC00240C058C1C43B042A4B2ADB21BD0134B12
:1002DC00984218D0B0F1804F15D0A3F598339842BE
:1002EC0011D003F5806398420DD003F580639842DA
:1002FC0009D025F00A0341EA030545F00105048302
:10030C00058470BC704725F002050D4345F00105CE
:10031C000483058470BC7047002C014000340140FC
:10032C0070B440F6FF45048C120224F0100424042F
:10033C00240C0484048B42EA0333174A2540068CB0
:10034C001D430C019042ADB2B6B2A4B21AD0134BFD
:10035C00984217D0B0F1804F14D0A3F5983398423F
:10036C0010D003F5806398420CD003F5806398425B
:10037C0008D026F0A0060E4346F010040583048432
:10038C0070BC704726F02006344344F010040583FB
:10039C00048470BC704700BF002C01400034014045
:1003AC0008B57C4B984242D0B0F1804F4BD07A4B81
:1003BC00984252D0794B98422FD0794B984256D0D4
:1003CC00784B98425DD0784B984264D0774B9842EA
:1003DC0000F08380764B984267D0764B984200F0C1
:1003EC008880754B984200F09080744B984200F0D6
:1003FC009880734B984200F09E80724B984200F0AC
:10040C00A480714B984200F0AC80704B984258D04D
:10041C006F4B984200F0B18008BD0121042001F01F
:10042C0019FCBDE808400021042001F013BC012197
:10043C004FF4006001F002FCBDE8084000214FF4CD
:10044C00006001F0FBBB0121084601F003FCBDE894
:10045C0008400021012001F0FDBB0121022001F028
:10046C00F9FBBDE808400021022001F0F3BB01219B
:10047C00082001F0EFFBBDE808400021082001F046
:10048C00E9BB0121102001F0E5FBBDE8084000218B
:10049C00102001F0DFBB0121202001F0DBFBBDE8C7
:1004AC0008400021202001F0D5BB01214FF4002091
:1004BC0001F0C4FBBDE8084000214FF4002001F01E
:1004CC00BDBB01214FF4003001F0B8FBBDE8084082
:1004DC0000214FF4003001F0B1BB01214FF400506A
:1004EC0001F0ACFBBDE8084000214FF4005001F0D6
:1004FC00A5BB01214FF4801001F0A0FBBDE8084022
:10050C0000214FF4801001F099BB01214FF4001031
:10051C0001F094FBBDE8084000214FF4001001F0FD
:10052C008DBB0121402001F095FBBDE80840002166
:10053C00402001F08FBB0121802001F08BFBBDE836
:10054C0008400021802001F085BB01214FF4807010
:10055C0001F080FBBDE8084000214FF4807001F0F1
:10056C0079BB01214FF4803001F068FBBDE80840F5
:10057C0000214FF4803001F061BB01214FF4802049
:10058C0001F05CFBBDE8084000214FF4802001F035
:10059C0055BB00BF002C0140000400400008004087
:1005AC00000C0040001000400014004000340140DA
:1005BC00004C014000500140005401400018004024
:1005CC00001C00400020004000400140004401405D
:1005DC0000480140274A0388904270B49BB212D065
:1005EC0002F5006290420ED0B0F1804F0BD0A2F514
:1005FC009832904207D002F58062904203D002F507
:10060C008062904203D14A8823F0700313431A4D41
:10061C008C88A8420A8815D005F58065A84211D0AF
:10062C00CE8823F440739BB205F58C353343A84236
:10063C000380848502850CD170BC0B7A0386012360
:10064C0083827047038084850285012370BC83827A
:10065C0070470A4B9842EFD003F540639842EBD0B9
:10066C0003F580639842E7D003F580639842E3D0AA
:10067C00EBE700BF002C01400010004000340140AB
:10068C00038CF0B423F001031B041B0C0D890384B1
:10069C00028C4E8822F0020284881204038B3543AC
:1006AC00120C23F073032A43164D1B040E881B0CEB
:1006BC00A842A4B243EA06030FD005F50065A84290
:1006CC000BD005F54065A84207D005F58065A8421A
:1006DC0003D005F58065A8420DD14E8922F00802A1
:1006EC008D89CF8932438E8824F4407422F0040221
:1006FC003D4332432C43C98884800383F0BC8186FC
:10070C0002847047002C0140028CF0B422F01002DD
:10071C001204120C0D890284038C4E88848823F0F9
:10072C002003028B1B04354322F4E6421B0C43EAE4
:10073C00051312040E88144D120C42EA0622A8422C
:10074C009BB2A4B292B20AD005F50065A84206D0BD
:10075C00C98884800283F0BC0187038470474FF6FC
:10076C00BF754F8923F0800343EA07138E89CF8925
:10077C001D408B8824F440643E4345EA031344EA4D
:10078C0086049BB2A4B2E3E7002C0140028CF0B4C7
:10079C0022F480721204120C0D890284038C4E8890
:1007AC0023F4007384881B04828B35431B0C43EAAF
:1007BC00052322F07302154D12040E88120CA84268
:1007CC009BB2A4B242EA06020AD005F50065A84223
:1007DC0006D0C98884808283F0BC818703847047EB
:1007EC004FF6FF354F8923F4006343EA07238E89C4
:1007FC00CF891D408B8824F440543E4345EA0323A3
:10080C0044EA06149BB2A4B2E3E700BF002C0140FB
:10081C00028C70B422F480521204120C0D890284E2
:10082C00038C4E88848823F40053828B1B0435433D
:10083C0022F4E6421B0C43EA053312040E880E4DDB
:10084C00120C42EA0622A8429BB2A4B292B20BD07E
:10085C0005F50065A84207D0C9888480828370BCE6
:10086C00A0F84010038470478D8924F4804444EA36
:10087C008514A4B2F0E700BF002C0140F8B50D467A
:10088C000E88AA8849882B890446002E47D0042E4E
:10089C0000F09280082E4FD040F6FF46008C1B03D0
:1008AC0020F480500004000C2084A08B4A4F43EAB3
:1008BC0002230640208C33430A03BC429BB280B215
:1008CC0092B218D0454EB44215D0B4F1804F12D02C
:1008DC00A6F59836B4420ED006F58066B4420AD01E
:1008EC0006F58066B44206D047F6FF5202400A4332
:1008FC0042F4805204E020F40050024342F480524F
:10090C00A3832284A38BEA8823F440631B041B0C6F
:10091C00A383A38B43EA02239BB2A383F8BDFFF707
:10092C00C1FC038BEA8823F00C031B041B0C038310
:10093C00038B13430383F8BD008C274E20F4807087
:10094C000004000C2084A08B278C80B220F0F300D4
:10095C00024342EA0312B4424FEA012392B2BFB2FD
:10096C009BB217D01D48844214D0B4F1804F11D0E3
:10097C00A0F5983084420DD000F58060844209D0F7
:10098C0000F58060844205D027F420670F4347F4BC
:10099C00807304E027F400773B4343F48073A28315
:1009AC002384A38BEA8823F00C031B041B0CA38366
:1009BC00A38B1343A383F8BDFFF7B2FC038BEA8828
:1009CC0023F440631B041B0C0383038B43EA0223B5
:1009DC009BB20383F8BD00BF002C014000340140E2
:1009EC00F8B50D464988AA880029B5F800C00CBF97
:1009FC0002260026012A0CBF022701272B89BCF1F5
:100A0C00000F1DD1FFF74EFC038BE98823F00C037C
:100A1C001B041B0C0383038B3A460B4303833146A5
:100A2C002B89FFF77DFC038BEA8823F440631B04BE
:100A3C001B0C0383038B43EA02239BB20383F8BD95
:100A4C00FFF76EFC038BE98823F440631B041B0C3B
:100A5C000383038B3A4643EA01239BB2038331465B
:100A6C002B89FFF71FFC038BEA8823F00C031B0474
:100A7C001B0C0383038B13430383F8BD10B40B8847
:100A8C004C888A882343CC8813430A8923434C8996
:100A9C0013438A8923431343A0F8443010BC704796
:100AAC0000234FF6FF7203808280C3804380037261
:100ABC00704700BF0023038043808380C380038181
:100ACC0043818381C381704700230122038082808C
:100ADC004380C3800381704700230380438083805D
:100AEC00C380038143818381704700BF038819B1A0
:100AFC0043F001030380704723F001031B041B0C1C
:100B0C0003807047B0F8443021B143F40043A0F89F
:100B1C0044307047C3F30E03A0F84430704700BF55
:100B2C00838912B119438181704723EA01018181C4
:100B3C00704700BF818270470A43A0F84820704775
:100B4C00FFF7EEBF038923F007031B041B0C038183
:100B5C00704700BF038923F070031B041B0C19435F
:100B6C000181038943F0070303817047602938B57D
:100B7C000D46044611464FF001020DD0FFF792FBD3
:100B8C00218921F070010904090C29432181238951
:100B9C0043F00703238138BDFFF7C2FBF0E700BF2A
:100BAC0010B4048942EA03231943E4B20C43A4B2FF
:100BBC000481038910BC23F077031B041B0C43F046
:100BCC0077030381704700BF10B4048942EA032302
:100BDC001943E4B20C43A4B20481038910BC43F45E
:100BEC0080430381704700BF10B404890A4342EA72
:100BFC000323E4B21C43A4B2048110BC704700BFB1
:100C0C0001858282704700BF038823F070031B04A8
:100C1C001B0C194301807047038923F070031B04DC
:100C2C001B0C194301817047F0B40589078B048CA8
:100C3C000B4E24F0220425F00705240442EA03138A
:100C4C003E402D04240C2D0C1C4346F48073294388
:100C5C00A4B243F00103018103830484F0BC704708
:100C6C00FCFCFFFF038B23F070031B041B0C1943CC
:100C7C0001837047038B23F4E0431B041B0C43EAF2
:100C8C00012189B201837047838B23F070031B040D
:100C9C001B0C194381837047838B23F4E0431B04A3
:100CAC001B0C43EA012189B281837047038819B177
:100CBC0043F080030380704723F080031B041B0C5C
:100CCC0003807047838819B143F004038380704715
:100CDC0023F004031B041B0C83807047838819B119
:100CEC0043F008038380704723F008031B041B0C9C
:100CFC0083807047838819B143F001038380704768
:100D0C0023F001031B041B0C83807047038B23F01F
:100D1C0008031B041B0C194301837047038B23F43A
:100D2C0000631B041B0C43EA012189B20183704749
:100D3C00838B23F008031B041B0C1943818370471E
:100D4C00838B23F400631B041B0C43EA012189B23F
:100D5C0081837047038B23F004031B041B0C194382
:100D6C0001837047038B23F480631B041B0C43EA41
:100D7C00012189B201837047838B23F004031B0488
:100D8C001B0C194381837047838B23F480631B04F2
:100D9C001B0C43EA012189B281837047038B23F03A
:100DAC0080031B041B0C194301837047038BC3F393
:100DBC000E0343EA012189B201837047838B23F030
:100DCC0080031B041B0C194381837047838BC3F373
:100DDC000E0343EA012189B281837047038C23F00F
:100DEC0002031B041B0C194301847047038C23F072
:100DFC0008031B041B0C194301847047038C23F05C
:100E0C0020031B041B0C43EA011189B201847047B7
:100E1C00038C23F080031B041B0C43EA011189B2E1
:100E2C0001847047038C23F400731B041B0C43EAEE
:100E3C00012189B201847047038C23F400631B04E5
:100E4C001B0C43EA012189B201847047038C23F403
:100E5C0000531B041B0C43EA013189B20184704717
:100E6C0010B40124038C8C4023EA04030384038C08
:100E7C0002FA01F1194389B2018410BC704700BF1A
:100E8C0010B40424038C8C4023EA04030384038CE5
:100E9C0002FA01F1194389B2018410BC704700BFFA
:100EAC0010B40124038C8C4023EA040321F00804C1
:100EBC00038418306CB10439C1F34E010B58120283
:100ECC0023F4E0430B500B5892B21A430A5010BC57
:100EDC00704749080B5810BC23F070030B500B588B
:100EEC001A430A50704700BF038819B143F002033C
:100EFC000380704723F002031B041B0C0380704714
:100F0C00038819B143F004030380704723F00403F2
:100F1C001B041B0C03807047838819B143F08003BA
:100F2C008380704723F080031B041B0C8380704765
:100F3C00038823F008031B041B0C0380038819434C
:100F4C0001807047838823F070031B041B0C838083
:100F5C008388194381807047038923F007031B049E
:100F6C001B0C03810389194301817047038923F00A
:100F7C0080031B041B0C03810389194301817047F7
:100F8C0081847047818570478186704701877047DF
:100F9C0081877047A0F84010704700BF038B23F087
:100FAC000C031B041B0C0383038B19430183704735
:100FBC00038B23F440631B041B0C0383038B43EA56
:100FCC00012189B201837047838B23F00C031B042E
:100FDC001B0C8383838B194381837047838B23F48E
:100FEC0040631B041B0C8383838B43EA012189B26E
:100FFC0081837047038823F440731B041B0C03800C
:10100C000388194301807047808E7047008F7047AA
:10101C00808F7047B0F84000704700BF808C7047DD
:10102C00008D7047038A194214BF012000207047BD
:10103C00C94389B201827047038A828911EA03008D
:10104C0092B203D00A4214BF01200020704700BFA7
:10105C00C94389B20182704740F0BF60024B40F433
:10106C000030D860704700BF00ED00E0F0B4012400
:10107C000178C37801F01F0294404E09BBB10F4BAD
:10108C008278DD684778E8430F23C0F30220C0F173
:10109C000405C340AF4013403B43094A1B01DBB27C
:1010AC00114481F8003342F82640F0BC7047044BE1
:1010BC00203643F82640F0BC704700BF00ED00E03E
:1010CC0000E100E021F0604121F07F01014B014380
:1010DC009960704700ED00E0044A136911B10343B5
:1010EC001361704723EA00031361704700ED00E0C1
:1010FC00044A042813680CBF43F0040323F00403D0
:10110C001360704710E000E008B5264B984218D0E9
:10111C00254B984221D0254B98422AD0244B9842FB
:10112C0003D0244B984230D008BD01214FF400204D
:10113C0000F090FDBDE8084000214FF4002000F0C5
:10114C0089BD01214FF4804000F078FDBDE80840D6
:10115C0000214FF4804000F071BD01214FF40030AC
:10116C0000F078FDBDE8084000214FF4003000F09D
:10117C0071BD01214FF4802000F06CFDBDE80840EA
:10118C0000214FF4802000F065BD01214FF4801048
:10119C0000F060FDBDE8084000214FF4801000F025
:1011AC0059BD00BF003801400044004000480040D9
:1011BC00004C00400050004030B50D460446038AF8
:1011CC00CA889BB223F4405313438A8903828089D3
:1011DC00234B8988034028890B43698903430B43BC
:1011EC00A381A38A87B09BB223F44073134301A855
:1011FC00A38200F0B7FCDDE903311A482A68844267
:10120C0008BF0B46A18903EB830309044CBF5200B2
:10121C00920003EB8303B3FBF2F364221248A5891B
:10122C00A0FB03C1490902FB11332A044FEA011147
:10123C000AD41B013233A0FB0323C3F343130B4328
:10124C009BB2238107B030BDDB003233A0FB0323FC
:10125C00C3F3421242EA01039BB2238107B030BDB3
:10126C00F3E9FFFF003801401F85EB5100234FF4D9
:10127C0016514FF440220160C0E90132838170475E
:10128C0030B40B884D888C88028A2B43C988234341
:10129C0092B20B4322F470621343038230BC70474A
:1012AC000023038043808380C3807047838919B1F6
:1012BC0043F400538381704723F400531B041B0C2D
:1012CC0083817047012310B401F01F04C1F3421154
:1012DC00012903FA04F30FD002290CBF103014308B
:1012EC0022B1026810BC134303607047026810BC43
:1012FC0022EA0303036070470C30F1E7838A12B1D2
:10130C0019438182704723EA01018182704700BF33
:10131C00038A23F00F031B041B0C0382038A19435B
:10132C0001827047838923F400631B041B0C8381A7
:10133C008389194381817047838919B143F0020372
:10134C008381704723F002031B041B0C83817047BD
:10135C00038A23F020031B041B0C0382038A19430A
:10136C0001827047038A19B143F4804303827047AA
:10137C0023F480431B041B0C03827047C1F3080148
:10138C00818070478088C0F308007047838943F0E0
:10139C0001038381704700BF038BDBB20383038B94
:1013AC0043EA012101837047038B03F47F430383DA
:1013BC00038B194301837047838A19B143F02003CF
:1013CC008382704723F020031B041B0C838270471D
:1013DC00838A19B143F010038382704723F0100302
:1013EC001B041B0C83827047838A19B143F00803DA
:1013FC008382704723F008031B041B0C8382704705
:10140C00838919B143F4004383817047C3F30E03FE
:10141C0083817047838A19B143F4006383827047D8
:10142C0023F400631B041B0C83827047838A23F014
:10143C0004031B041B0C8382838A1943818270472B
:10144C00838A19B143F002038382704723F00203AD
:10145C001B041B0C838270470388194214BF0120A4
:10146C0000207047C94389B2018070470123C1F342
:10147C00421210B4012A01F01F0403FA04F314D031
:10148C00022A0CBF028A828A1340028892B24BB1A4
:10149C000123090A03FA01F10A4214BF184600207D
:1014AC0010BC7047184610BC704782891340ECE79B
:1014BC000123090A8B40DB439BB20380704700BFBA
:1014CC0010B44FF6FE74002302683B492240884258
:1014DC000260036043608360C3602DD0374B984239
:1014EC0023D0374B984234D0364B984238D0364BB9
:1014FC00984228D0354B984239D0354B984242D03F
:10150C00344B984245D0344B984236D0334B9842AA
:10151C0045D0334B984248D0324B98420AD1324A8C
:10152C00536843F47023536004E0304A536843F02B
:10153C00F003536010BC70472C4A10BC536843F046
:10154C000F0353607047294A536843F47023536068
:10155C00F0E7264A10BC536843F47063536070473D
:10156C00224A10BC536843F47043536070471F4ABF
:10157C00536843F470035360DCE71B4A536843F031
:10158C00F0035360D6E7194A536843F07063536015
:10159C00D0E7154A536843F00F035360CAE7124A69
:1015AC00536843F470635360C4E70F4A536843F4C1
:1015BC0070435360BEE700BF080002401C000240AD
:1015CC003000024044000240580002406C000240CF
:1015DC0080000240080402401C0402403004024017
:1015EC00440402405804024000040240000002403F
:1015FC008B6830B40C6A0A6923434C6913438A69BB
:10160C002343CC694D6A1343026823438C6A2B43F2
:10161C0022F4FF42CD68234322F070021343D1E938
:10162C000041036045608460C16030BC704700BFFE
:10163C000023C0E90033C0E90233C0E90433C0E938
:10164C000633C0E908338362704700BF21B10368D9
:10165C0043F00103036070474FF6FE7203681340BA
:10166C0003607047036812B10B430360704723EAB1
:10167C0001030360704700BF41607047406880B24F
:10168C00704700BFC3004CBF034B044B1B680342A5
:10169C0014BF0120002070470004024000000240EB
:1016AC00C3004CBF014B024B586070470004024012
:1016BC0000000240FFF7E6BFFFF7F2BF08B52F4B63
:1016CC0098421CD02E4B984223D02E4B98422AD0B5
:1016DC002D4B984209D02D4B98422ED02C4B984232
:1016EC0035D02C4B98423CD008BD0121202000F075
:1016FC00A5FABDE808400021202000F09FBA012186
:10170C00042000F09BFABDE808400021042000F002
:10171C0095BA0121082000F091FABDE8084000219B
:10172C00082000F08BBA0121102000F087FABDE8E8
:10173C0008400021102000F081BA0121402000F067
:10174C007DFABDE808400021402000F077BA012165
:10175C00802000F073FABDE808400021802000F0E2
:10176C006DBA01214FF4807000F068FABDE80840B2
:10177C0000214FF4807000F061BA00BF00080140F6
:10178C00000C014000100140001401400018014001
:10179C00001C014000200140012108B5084600F062
:1017AC004DFABDE808400021012000F047BA00BF07
:1017BC002DE9F041CD780A88EB0648BF8B7805F00F
:1017CC000F0748BF1F4312F0FF0F21D000234FF02B
:1017DC00010C4FF00F08066802E00133082B16D0FD
:1017EC000CFA03F131EA0204F7D19C0008FA04FE6A
:1017FC0026EA0E0607FA04F4282D46EA04062ED033
:10180C00482D03F1010308BF0161082BE8D10660E4
:10181C00FF2A22D908234FF0010C4FF00F0846681D
:10182C0002E00133102B17D00CFA03F434EA020156
:10183C00F7D19900203908FA01FE26EA0E0607FABC
:10184C0001F1282D46EA01060BD0482D03F10103C6
:10185C0008BF0461102BE7D14660BDE8F0814161FF
:10186C00BBE74461DDE700BF4FF6FF7240F2024375
:10187C0002804380704700BF8368194214BF012067
:10188C0000207047806880B2704700BFC36819425F
:10189C0014BF012000207047C06880B2704700BFA1
:1018AC0001617047416170470AB101617047416144
:1018BC00704700BFC160704741F480338361816120
:1018CC00836183698369704710B44FF68074044A4E
:1018DC0013682340194341EA0011116010BC704792
:1018EC0000000140014B1860704700BF1C002042F3
:1018FC000028194B00F44012B4BFDB695B68B2F5E9
:10190C00401F30B484B21ED0C20213D50322C0F3E0
:10191C000345AA4023EA020343F0706319B1420D58
:10192C001201944023430C4A0028B4BFD361536086
:10193C0030BC7047420D120104FA02F223EA020392
:10194C0043F07063EAE7044D23F070636A6822F099
:10195C0070626A60E2E700BF0000014010B40F241F
:10196C0001F0FC0303F1804303F5803301F0030124
:10197C009A6889008C4022EA04029A609A6800FAFC
:10198C0001F11143996010BC704700BF014B186006
:10199C00704700BFDC0020424FF41F000C4B0D4A77
:1019AC00196841F00101196059680A405A601A68B7
:1019BC0022F0847222F480321A601A6822F4802297
:1019CC001A605A6822F4FE025A609860704700BF91
:1019DC00001002400000FFF80C4BB0F5803F1A6875
:1019EC0022F480321A601A6822F480221A6008D01D
:1019FC00B0F5802F04D11A6842F4A0221A60704707
:101A0C0070471A6842F480321A6070470010024026
:101A1C00002382B00A4A0193136813F4003F019B20
:101A2C0003F101030193019B05D0054B1868C0F32A
:101A3C00404002B07047B3F5A06FEDD1F5E700BFA1
:101A4C0000100240034A136823F0F80343EAC00075
:101A5C001060704700100240014B1860704700BFC7
:101A6C0000004242034A536823F47C131943014398
:101A7C005160704700100240014B1860704700BF66
:101A8C0060004242034A536823F00303184350603A
:101A9C00704700BF00100240024B586800F00C0069
:101AAC00704700BF00100240034A536823F0F00354
:101ABC0018435060704700BF00100240034A53683F
:101ACC0023F4E06318435060704700BF00100240DD
:101ADC00034A536823F4605343EAC00050607047D4
:101AEC0000100240044A137811B10343137070477D
:101AFC0023EA00031370704709100240014B186071
:101B0C00704700BFD8004242034A536823F4404355
:101B1C0018435060704700BF001002400022064B73
:101B2C0001281A701A7005D0042802D105221A70E7
:101B3C00704770471870704720100240014B1860B6
:101B4C00704700BF80044242024A136A1843106275
:101B5C00704700BF00100240014B1860704700BF77
:101B6C003C0442421F4A10B4536803F00C03042B8C
:101B7C0001D0082B20D01C4B03601A491B4A4C681F
:101B8C00C4F30314145DE34043604C68C4F30224B3
:101B9C00145D23FA04F484604C68C4F3C224145D0D
:101BAC00E340C360496810BCC1F381310A44127C24
:101BBC00B3FBF2F30361704753685168C3F383437B
:101BCC00C90303F1020307D55268920304D4064AF1
:101BDC0002FB03F30360D0E7054A02FB03F3036047
:101BEC00CBE700BF0010024000127A001400002066
:101BFC0000093D00044A536911B103435361704716
:101C0C0023EA00035361704700100240044A9369B1
:101C1C0011B103439361704723EA0003936170474A
:101C2C0000100240044AD36911B10343D3617047D9
:101C3C0023EA0003D361704700100240044AD368C2
:101C4C0011B10343D360704723EA0003D36070479C
:101C5C0000100240044A136911B103431361704729
:101C6C0023EA00031361704700100240014B186017
:101C7C00704700BF40044242014B1860704700BFE0
:101C8C004C004242014B1870704700BF07100240D5
:101C9C004309012B0BD0022B094B00F01F000CBF8A
:101CAC001B6A5B6A23FA00F000F001007047044BDA
:101CBC0000F01F001B6823FA00F000F001007047D1
:101CCC0000100240024A536A43F08073536270471B
:101CDC0000100240034B9B68184214BF01200020E7
:101CEC00704700BF00100240014B1870704700BFD6
:101CFC000A10024008B5174B984206D0164B984272
:101D0C000FD0164B984218D008BD01214FF400702B
:101D1C00FFF794FFBDE8084000214FF40070FFF777
:101D2C008DBF01214FF48060FFF788FFBDE80840AC
:101D3C0000214FF48060FFF781BF01214FF4004078
:101D4C00FFF77CFFBDE8084000214FF40040FFF78F
:101D5C0075BF00BF0024014000280140003C014039
:101D6C00436830B423F470230C790A6823F480732D
:101D7C0043EA04231343436085680A4AD1E90243CA
:101D8C002A4023434C79134343EA440383600A7C7F
:101D9C00C36A013AD2B223F4700343EA0253C3621A
:101DAC0030BC7047FDF7F1FF002301220360027481
:101DBC008380C0E902337047836819B143F0010393
:101DCC008360704723F0010383607047836819B107
:101DDC0043F480738360704723F48073836070478F
:101DEC00C9B2436812B10B434360704723EA010345
:101DFC0043607047836843F008038360704700BFFB
:101E0C008068C0F3C0007047836843F004038360AC
:101E1C00704700BF8068C0F380007047836819B1B9
:101E2C0043F4A0038360704723F4A00383607047DE
:101E3C008068C0F3805070474368013923F46043D5
:101E4C0043EA413343607047436819B143F400637C
:101E5C004360704723F4006343607047092970B4F2
:101E6C0029D90726A1F10A0404EB4404C568A6404D
:101E7C00A34025EA06052B43C360062A4FF01F0436
:101E8C000BD8013A02EB8202436B944023EA040321
:101E9C0091401943416370BC70470C2A16D8073A1D
:101EAC0002EB8202036B944023EA04039140194332
:101EBC00016370BC7047072501EB41060469B5400E
:101ECC00B34024EA050423430361D6E70D3A02EB41
:101EDC008202C36A944023EA040391401943C1620D
:101EEC0070BC7047836819B143F4801383607047EA
:101EFC0023F4801383607047C06C80B2704700BFBE
:101F0C00014B1868704700BF4C240140436819B15D
:101F1C0043F480634360704723F4806343607047ED
:101F2C00436819B143F480534360704723F48053E2
:101F3C0043607047836823F4E04319438160704722
:101F4C00836819B143F400438360704723F4004362
:101F5C0083607047836819B143F402138360704740
:101F6C0023F40213836070478068C0F340507047BD
:101F7C00092970B41CD90726A1F10A0404EB440406
:101F8C00C568A640A34025EA06052B43C3601F2461
:101F9C00836B0232C3F30155521BD2B202EB8202A5
:101FAC00944023EA040391401943816370BC704749
:101FBC00072501EB41060469B540B34024EA05044A
:101FCC0023430361E3E700BF836B013923F4401320
:101FDC0043EA015383637047002382B0019301905D
:101FEC00019B19440191019B1A6002B0704700BF1C
:101FFC00002382B001930190019B28331944019175
:10200C00019B186880B202B0704700BF436823F48C
:10201C00400323F4007319434160704741628262AC
:10202C00704700BF436823F01F031943416070479A
:10203C00054A936818B143F400039360704723F486
:10204C0000039360704700BF0024014003681942ED
:10205C0014BF012000207047C9430160704700BFC6
:10206C004368006810EA112004D0C9B2194214BFA9
:10207C0001200020704700BF6FEA112101607047FA
:10208C0000204FF43F4310B40349044C044A206031
:10209C000B8010BC136070478C4D0020445C0040DA
:1020AC00405C004070B500F07F05144628460E4693
:1020BC0000F094FFA4B201462246304600F018F816
:1020CC002846214600F0A6FF002070BD70B500F038
:1020DC007F0528460E4600F0F1FF0446284600F026
:1020EC008BFF22460146304600F012F8204670BDA8
:1020FC0001F10051013201F5405152104FEA4101FA
:10210C0005D030F8023B013A21F8043BF9D1704775
:10211C0001F10051013201F5405152104FEA4101D9
:10212C0005D051F8043B013A20F8023BF9D1704735
:10213C0000232DE9F047544F82B0DFF86491DFF8AB
:10214C006481524EADF80630D9F80030504C99B23B
:10215C001B04504D504A398040F18B803B8803F072
:10216C000F03990001F1804101F5B84188F8003066
:10217C00002B2FD14BF6BF7A23689BB22B802B8878
:10218C0003F0300313802B8803F440532B80236817
:10219C0003EA0A0383F4005383F0200343F400435F
:1021AC0043F0800323603B88D9063AD523689BB261
:1021BC00ADF80630BDF806301A055DD4BDF8063012
:1021CC001B04C1D540F68F7123680B40236000F0CF
:1021DC0053FC2DE00A68314892B2ADF80620BDF8E8
:1021EC000620013B140407D540F68F740A6850F89A
:1021FC00230022400A608047BDF806301A06A3D59A
:10220C0048F60F7098F80020930003F1804303F513
:10221C00B8431968013A014056F8222019609047DA
:10222C0092E748F60F7123680B40236000F0A2FC84
:10223C002368298803EA0A0A174A2B8811F4805F5D
:10224C0018BF8AF4805A9F04138848BF8AF4005A36
:10225C00DE06138848BF8AF0100A9D0648BF8AF034
:10226C00200A4AF4004A4AF0800A094A1FFA8AF303
:10227C00136002B0BDE8F08740F68F7123680B4005
:10228C00236000F045FAD3E7904D00204800002071
:10229C00005C0040544D0020564D00202C000020C6
:1022AC00445C0040644D0020F8B51A4F1A4E1B4C8C
:1022BC001B4D33681B489AB21B043A8029D547F64C
:1022CC00FF7333603A8802F00F02930003F18043EE
:1022DC00227003F5B843196802F1FF3C11F4004F6A
:1022EC0009D040F68F7E1A6850F82C1002EA0E02C4
:1022FC001A608847DDE7090602F1FF32D9D548F6A6
:10230C000F7C196855F8220001EA0C01196080470E
:10231C00CFE7F8BD904D0020445C0040644D002098
:10232C00480000202C00002008B538B1064B1B6873
:10233C001B689847054B18680A3008BD0122034BEF
:10234C001B681A8208BD00BF844D0020884D0020F8
:10235C0008B538B1064B1B689B689847054B186845
:10236C000C3008BD0122034B1B681A8208BD00BF4C
:10237C00844D0020884D002008B51E4B1A6800289B
:10238C0032D000201C490880137813F07F0316D03C
:10239C00012B2CD0022B21D1527902F00F039B0080
:1023AC0003F1804303F5B84312061B6817D403F4FA
:1023BC004053B3F5805F0CD101230B7009E0537AC5
:1023CC0013F0200218BF0222580648BF42F0010247
:1023DC000A700A4B1B681B699847074808BD03F035
:1023EC003003102BF5D1E7E70223138208BD084612
:1023FC0008BD00BF884D0020584D0020844D0020A2
:10240C002DE9F041234F3D682C8A2CB92E7A042EED
:10241C002BD0AB8A042604E0AB8A9C4294BF0426E2
:10242C0002269C4228BF1C46AB6920469847804632
:10243C00002000F0D3FD224601464046FFF758FE2F
:10244C002146002000F0E6FD30204FF440522B8A4C
:10245C00698A1B1B2B820C440F4B10496C82088021
:10246C003D681A802E72BDE8F0810D4B1A78012A56
:10247C0004D01022094B07261A80F3E730200949B3
:10248C00094A096889B20A440449520014601C7054
:10249C000880E7E7884D0020544D0020564D002061
:1024AC00F0000020505C00400230002010B50A4BB8
:1024BC000A4A1B685178DA7891420AD39C7844B95D
:1024CC00998831B906499A720B685B68984720461F
:1024DC0010BD0224204610BD884D0020EC000020C9
:1024EC00844D002038B50F4A0F4C12682368D978F8
:1024FC0058799369984723689A7A7AB170B91A799E
:10250C0062B99D7855B9094B1B68DB6898472368FD
:10251C0028465979DA78D9721A7338BD02252846BB
:10252C0038BD00BF604D0020884D0020844D002038
:10253C002F4B1B68187810F07F002ED0022801D08A
:10254C00022070475A883ABB1A792ABB5A7970B55F
:10255C0022F08005AC0004F18044264E04F5B8440A
:10256C00216852B23678002AB4BF01F0300101F470
:10257C004051AE420FD971B19B7A63B1002A2368E6
:10258C0010DB03F44053B3F5805F18D01A4B1B6873
:10259C005B699847002070BD70475A7A22F0200280
:1025AC005A72704703F03003102BEFD1EDB228466E
:1025BC0000F0C8FC2846302100F0B0FBE6E79DB9DE
:1025CC000E4B284693F82C1000F046FD236823F49C
:1025DC00804323F070039BB283F4405343F40043D5
:1025EC0043F080032360D1E7284600F099FCEDE727
:1025FC00884D0020EC000020844D00209800002025
:10260C0038B51F4B1F4D18682D78427922F0800485
:10261C00A30003F1804303F5B843196852B2002AB2
:10262C00B4BF01F0300101F44051A54219D94488DE
:10263C00BCB9B1B1817AA1B1002A1A6813DB22F4BA
:10264C00804222F0700292B282F4805242F4004234
:10265C0042F080021A600C4B1B689B699847002063
:10266C0038BD022038BD22F4E04222F0400292B282
:10267C0082F0100242F4004242F080021A60EAE753
:10268C00884D0020EC000020844D002008B5064A3F
:10269C00064B12681968537A43F020035372CB69C6
:1026AC009847002008BD00BF884D0020844D0020B5
:1026BC00054B1B685A8A10B108681044704789880A
:1026CC008A1A1A82704700BF884D002010B50C4B37
:1026DC00002093F82C1000F0BFFC0A4B1B68187AF2
:1026EC00082806D14FF4805410220749074B0C8060
:1026FC001A80A0F10900B0FA80F0400910BD00BFAB
:10270C0098000020884D0020544D0020564D00208C
:10271C00F0B5A64EA64B34681A68237A83B0092B01
:10272C006FD1E388012265782272002B3CD122788C
:10273C0012F07F0229D1092D00F0A180052D00F0A7
:10274C00A480032D00F00A81012D00F01981994B12
:10275C0028461B685B6998470328346800F0B880EA
:10276C00002840F09E800025914A934B126830203F
:10277C0092B213445B001D600623904908802372BB
:10278C0003B0BDE8F040FFF7A1BF012A67D0022AD1
:10279C00DDD1012D00F0DC80032DD8D1FFF730FF07
:1027AC000028D4D13468DEE7062D7CD0002D43D12F
:1027BC00618831B9636823F47F43B3F5003F00F0BF
:1027CC000B817C4B1B681B692846984703287BD0E0
:1027DC004FF6FF7133681A8A8A423DD0022847D0DF
:1027EC00002A45D093F90010002973DB03204FF425
:1027FC004051734A1872118003B0BDE8F040FFF7E6
:10280C0065BF704B92B213445B001D886D0005F1DF
:10281C00804505F5C0452B7823706B786370A888CC
:10282C0000F082FD60802889346800F07DFDA08076
:10283C00AB893468E38075E7082D61D123785B069A
:10284C00BFD1614A0020A261608290474FF6FF71B0
:10285C0033681A8A8A42C3D109221A7290E70B2D67
:10286C007FF475AFFFF73EFE00287FF470AF99E759
:10287C0008221A7203B0BDE8F040FFF727BFFFF73C
:10288C0015FE00287FF463AF8CE794F90330002B1E
:10289C0007DBA3782BB9A3881BB9A37A002B3FF4D1
:1028AC0062AF08236BE72278424B50061B688AD133
:1028BC00A278012A78D0022A48D0032A83D15A6AF6
:1028CC00002ABFD106257EE7092233681A7257E722
:1028DC00092354E73748D98800680191019D90F885
:1028EC002C40AA42A0B22ED8914205D9904240F277
:1028FC008D800021354A11709882FFF781FD3FE7EA
:10290C002C4F0A2D3B687FF45EAF227802F07F02D9
:10291C00012A7FF458AFA27A002A3FF454AF6188A1
:10292C0000297FF450AF626822F47F42B2F5803FF9
:10293C007FF449AF9B6960799847002840F09080FC
:10294C003468234A7EE7019A1A82D5E71A6AB7E7F8
:10295C00FFF7EEFD00287FF4FAAE23E7E378012BB6
:10296C007FF4F5AEA388002B7FF4F1AE637A194A9D
:10297C0043F0200312686372D36998473468F2E617
:10298C00E278012A7FF4E3AEA288002A7FF4DFAE5E
:10299C00627A94067FF5DBAE0C4A5360FFF7C8FDF4
:1029AC0000287FF4D4AEFDE6DA6989E7884D002073
:1029BC00505C0040604D002002300020564D00203D
:1029CC00544D00200430002035230008F000002076
:1029DC005D230008844D0020257815F07F0505D176
:1029EC00A388002B7FF4EDAE1F4A2BE7012D18D1E5
:1029FC001E4F60793B689B699847002830D134683A
:102A0C00A37A002BF0D165783B68DCE6B2FBF4F1DD
:102A1C0004FB1122002A7FF46FAF0121144A1170BC
:102A2C006AE7022D18D1657905F00F02930029068B
:102A3C0003F180430F4903F5B8431B6809784CBF79
:102A4C0003F0300303F44053914205D915F070059F
:102A5C0002D1002BC8D1B4E6044B00251B68B2E6AA
:102A6C0032683B685578AEE685230008604D00203F
:102A7C00F0000020EC000020F8B5384D2C68237ACB
:102A8C00022B07D0042B05D0032B09D0052B07D024
:102A9C00072B2AD008232372BDE8F840FFF716BE97
:102AAC00A369228AB3B1A68ABAB1964228BF164648
:102ABC0030469847228A638A921B33440746228207
:102ACC006382002000F098FA324601463846FFF740
:102ADC001FFB228A82B9A68A2C680EBB03232372A1
:102AEC002372BDE8F840FFF7F1BD1D4B1B68DB6896
:102AFC0098472C680823CEE700214FF44052194B1D
:102B0C0008461A8000F086FA3021238AA28A164ED3
:102B1C009A4231802C68E1D91BB105232372BAE7A4
:102B2C00114E06220E4B22721B689B6898472C682C
:102B3C00237A082B0AD0002530200C490C4A09684E
:102B4C0089B20A44520015603080A4E74FF48050DB
:102B5C0010220449088032809DE700BF884D002078
:102B6C00604D0020544D0020564D0020505C00401C
:102B7C0002300020F8B5224C23681A7A022A09D0B8
:102B8C00042A07D0062A0ED008221A72BDE8F84093
:102B9C00FFF79CBDFFF734FC23681A7A1A72BDE864
:102BAC00F840FFF793BD5A78052A0AD0154B1B68DD
:102BBC009B689847082223681A72BDE8F840FFF713
:102BCC0085BD1A7812F07F02F0D10F49DF780878B2
:102BDC0068B140F60F7648F280050C490B6833401B
:102BEC00134301322B43904241F8043BF6D1084B7E
:102BFC00084A1B6847F0800717601B6A9847D5E79F
:102C0C00884D0020604D0020EC000020005C00404E
:102C1C00844D00204C5C004070B40C4B1C7874B19B
:102C2C00002240F60F7648F2800509490B683340C4
:102C3C00134301322B43944241F8043BF6D170BC50
:102C4C00044B40F080001860704700BFEC0000207F
:102C5C00005C00404C5C0040704700BF014B1860AA
:102C6C00704700BF405C0040014B186880B2704751
:102C7C00405C0040014B1860704700BF445C004052
:102C8C00014B186880B27047445C0040014B1868D7
:102C9C0080B27047485C0040014B1860704700BF21
:102CAC004C5C0040014B186880B270474C5C004093
:102CBC004FF6F873014A034013607047505C0040B4
:102CCC00014B186880B27047505C0040800000F1E6
:102CDC00804000F5B8400160704700BF800000F1F3
:102CEC00804000F5B840006880B27047800000F169
:102CFC00804000F5B840036823F4EC4323F07003E4
:102D0C00194389B201607047800000F1804000F5E2
:102D1C00B840006800F4C060704700BF800000F14C
:102D2C00804000F5B8400368CA0623F4E04323F062
:102D3C0040039BB248BF83F010038A0648BF83F060
:102D4C00200343F4004343F080030360704700BF4B
:102D5C00800000F1804000F5B8400368CA0423F4F9
:102D6C00804323F070039BB248BF83F480538A04E2
:102D7C0048BF83F4005343F4004343F080030360E3
:102D8C00704700BF800000F1804000F5B840012979
:102D9C00036807D0022900D070474FF6EF7213403A
:102DAC00036070474EF6FF7213400360704700BF1C
:102DBC00800000F1804000F5B840006800F0300061
:102DCC00704700BF800000F1804000F5B8400068FB
:102DDC0000F44050704700BF800000F1804000F5C7
:102DEC00B840036823F4E04323F040039BB283F024
:102DFC00300343F4004343F080030360704700BF8B
:102E0C00800000F1804000F5B840036823F4804353
:102E1C0023F070039BB283F4405343F4004343F01C
:102E2C0080030360704700BF40F60F73800000F111
:102E3C00804000F5B8400268134043F4014343F06E
:102E4C0080030360704700BF40F60F63800000F101
:102E5C00804000F5B8400268134043F4004343F04F
:102E6C0080030360704700BFFFF7EEBFFFF7DCBFC6
:102E7C00FFF7DABFFFF7E8BF800000F1804000F5F4
:102E8C00B840006800F03000A0F11000B0FA80F0FB
:102E9C0040097047800000F1804000F5B8400068A0
:102EAC0000F44050A0F58050B0FA80F04009704713
:102EBC0040F68F72800000F1804000F5B840036846
:102ECC0013400360704700BF48F60F72800000F19A
:102EDC00804000F5B840036813400360704700BFA2
:102EEC0040F60F72800000F1804000F5B840036896
:102EFC00134043F4404343F080030360704700BF2A
:102F0C0040F60F72800000F1804000F5B840036875
:102F1C00134043F4004343F0C0030360704700BF09
:102F2C00800000F1804000F5B84003685B0408D5D0
:102F3C0040F60F720368134043F4404343F08003A0
:102F4C0003607047800000F1804000F5B8400368D2
:102F5C005B0608D540F60F720368134043F4004338
:102F6C0043F0C0030360704740F60F72800000F11D
:102F7C00804000F5B84003681340194341F4004108
:102F8C0041F0800101607047800000F1804000F545
:102F9C00B840006800F00F00704700BF064B4908AE
:102FAC001B6849009BB203EBC00000F1005000F518
:102FBC004050400001607047505C0040054A064B91
:102FCC001268490892B202EBC002134449005B003C
:102FDC0019607047505C004004300020054B1B68A2
:102FEC009BB203EBC00000F1005000F540504000D4
:102FFC0000887047505C0040044A054B126892B23E
:10300C0002EBC00003445B0018887047505C004022
:10301C0004300020044A054B126892B202EBC00047
:10302C0003445B0019607047505C00400230002084
:10303C003E290AD94B09C90604BF03F1FF339BB2E1
:10304C009B0243F40043036070474B08CA0748BF18
:10305C0001339B02036070470E4A0F4B12683E29E6
:10306C0092B202EBC00003444FEA43030AD94A0967
:10307C00C80604BF02F1FF3292B2920242F400423F
:10308C001A6070474A08C90748BF013292021A6099
:10309C00704700BF505C004006300020054A064BCC
:1030AC00126892B202EBC00003445B001868C0F3D4
:1030BC0009007047505C004002300020054A064B66
:1030CC00126892B202EBC00003445B001868C0F3B4
:1030DC0009007047505C00400630002030B40C4CA6
:1030EC00C000236825689BB20344ADB2094C284448
:1030FC0003F100534908520803F54053044464009B
:10310C00490052005B001960226030BC704700BF60
:10311C00505C004004300020FFF740BFFFF74EBF6B
:10312C00FFF75CBFFFF768BF012930B418D0022944
:10313C0001D030BC7047224BC0001C681D68A4B283
:10314C00ADB201F100511F4B044401F5405128442C
:10315C002144034449005B000A6030BC1A6070478C
:10316C00174BC0001B6818499BB2034419443E2AF4
:10317C004FEA410114D9124C53092468D20608BFF6
:10318C0003F1FF33A4B20F4A204408BF9BB29B0249
:10319C00024443F4004352000B6030BC1360704790
:1031AC005408D307064A074B126848BF013492B241
:1031BC0010440344A4025B000C601C6030BC7047DC
:1031CC00505C0040063000200230002001290CD059
:1031DC00022900D070471349134B096889B201EBDF
:1031EC00C0010B445B001A6070470E490E4B096816
:1031FC003E2A89B201EBC0010B444FEA43030AD9C2
:10320C005109D00604BF01F1FF3189B2890241F4A2
:10321C000041196070475108D20748BF013189023B
:10322C0019607047505C00400230002001290CD01E
:10323C00022900D070471349134B096889B201EB7E
:10324C00C0010B445B001A6070470E490E4B0968B5
:10325C003E2A89B201EBC0010B444FEA43030AD961
:10326C005109D00604BF01F1FF3189B2890241F442
:10327C000041196070475108D20748BF01318902DB
:10328C0019607047505C004006300020FFF706BF05
:10329C00FFF714BF0D49C0000A680D4B92B20244EF
:1032AC0013445B001B6813F47C4F0DD10A68094B67
:1032BC0092B2104403445B001B68C3F30903002B58
:1032CC0014BF02200020704701207047505C004062
:1032DC000630002002300020012911D0022900D034
:1032EC00704740F60F72800000F1804000F5B84046
:1032FC000368134043F4404343F08003036070477A
:10330C0040F60F72800000F1804000F5B840036871
:10331C00134043F4004343F0C0030360704700BF05
:10332C0041EA0020704700BFC3B2000A40EA032004
:10333C00704700BF022030B4064A074D074C084BBB
:10334C0010720849084823602A601B68086030BC6A
:10335C00184700BF684D0020884D0020604D0020AC
:10336C0098000020844D0020C8000020012130B5B9
:10337C00084685B0FEF756FC01210220FEF752FCF0
:10338C0000254FF6FF721A4B1A491B681A4CA1FB09
:10339C0003139B0C013B01A94FF08040ADF80430A6
:1033AC000292ADF80650FDF715F901A92046ADF8CB
:1033BC000450FDF70FF980214FF08040FDF7D6FD4A
:1033CC0020214FF08040FDF7BDFD20460721FDF781
:1033DC00C3FD20461021FDF71FFC20460121FDF7FF
:1033EC0085FB01214FF08040FDF780FB05B030BD1F
:1033FC001000002083DE1B43000400404FF080438C
:10340C00024A9B8C908C43EA0040704700040040B9
:10341C0010B44FF080440549A38C8A8C43EA0243D4
:10342C00C31A002BF8DC10BC704700BF000400402E
:10343C004FF08043084A10B411461C469B8C928C6A
:10344C0043EA02431844A38C8A8C43EA0243C31A0E
:10345C00002BF8DC10BC70470004004008B50122BA
:10346C004FF400510548FEF71FFA0020044BD3E936
:10347C000021521A58601A6008BD00BF00100140AC
:10348C00F800002008B54FF400510348FEF7FEF990
:10349C00B0FA80F0400908BD0010014000224FF442
:1034AC0000510148FEF700BA0010014001224FF410
:1034BC0000510148FEF7F8B90010014008B54FF46F
:1034CC0000510A48FEF7E2F938B1BDE80840002285
:1034DC004FF400510548FEF7E7B90122BDE808405A
:1034EC004FF400510148FEF7DFB900BF0010014056
:1034FC00034AD2E900315B1A0344506013607047F1
:10350C00F800002038B5084C636803B938BDFFF7E4
:10351C0075FF23680546C31A002BF7DBFFF7CEFFB8
:10352C0060682844206038BDF80000202DE9F04F79
:10353C0091B000F051FFFFF719FFFFF78FFF022149
:10354C00012000F00FFCBB4800F07EFCA021032002
:10355C0000F092FD002840F05E81A021032000F0D5
:10356C008BFD002840F0D381A021032000F084FDC6
:10357C00002840F0C581A021032000F07DFD00282B
:10358C0040F0B781A021032000F076FD002840F028
:10359C00A981A021032000F06FFD002840F092814A
:1035AC00A021032000F068FD002840F03B8100269C
:1035BC0000F01CFCFFF7BEFE9F48B246FFF798FFD9
:1035CC00DFF8F4829D4FDFF8F492DFF8F4B2FFF7E6
:1035DC0015FF0546FFF796FFD8F800403A68AB1B7D
:1035EC004B45144404D8964A934210D9A2450ED0A8
:1035FC00A021022000F040FD002840F08E80A02188
:10360C00022000F039FD002868D12E46A246402148
:10361C00684600F01FFE0028D9D0A021032000F03E
:10362C002BFD002840F08E809DF80030722B27D1A6
:10363C0065216A46834803E08B42C8D110F8011F0C
:10364C0012F8013F002BF7D10029C0D14FF4802193
:10365C004FF480127C4BC3F88010C3F8802000F02C
:10366C00C5FBA021032000F007FD00287FD100F04E
:10367C00BDFB8022744BC3F88420FCF741FDA6E708
:10368C00002BA4D0682B6AD1704865216A4603E0F0
:10369C008B429CD110F8011F12F8013F002BF7D17F
:1036AC00002994D100F0A2FB694800F0CDFB6948D9
:1036BC0000F0CAFB684800F0C7FB00F097FB6748B6
:1036CC0000F0C2FB664800F0BFFB664800F0BCFB94
:1036DC00654800F0B9FB00F089FB78E7634800F01F
:1036EC00B3FB634B2E461868624BA246002814BFEE
:1036FC005846184600F0A8FB5F4800F0A5FB5F4B4E
:10370C005F4A18685F4B002814BF1046184600F03B
:10371C009BFB5D4800F098FB79E75C4800F094FB5C
:10372C0000220A21D8F8000000F018FC584800F0DC
:10373C008BFB386800220A2100F010FC524800F084
:10374C0083FB5CE7504800F07FFB524800F07CFBA9
:10375C00684600F079FB504800F076FB64E73F2B9D
:10376C000CD19DF80130002B7FF431AF9AE74B4818
:10377C0000F06AFB444800F067FB78E76F2B7FF49E
:10378C0026AF474875216A4603E08B420BD110F8EF
:10379C00011F12F8013F002BF7D121B9062101209E
:1037AC0000F0E0FA13E73F4875216A4603E08B42CC
:1037BC000BD110F8011F12F8013F002BF7D121B9E2
:1037CC000221012000F0CEFA01E7374875216A4644
:1037DC0003E08B420BD110F8011F12F8013F002BB4
:1037EC00F7D121B90121084600F0BCFAEFE62F48C9
:1037FC0075216A4604E099427FF4E9AE10F8011F86
:10380C0012F8013F002BF6D100297FF4E0AE012025
:10381C0000F0A8FADBE6264800F016FB1A4800F088
:10382C0013FB9AE6234800F00FFB174800F00CFB43
:10383C00BDE600BF645B000880841E006C0700209E
:10384C0040420F003D62000800E100E06D5C0008A2
:10385C00985C0008B05C0008D85C0008F85C0008B4
:10386C00245D0008585D0008945D00083C5C00086D
:10387C0054070020585B0008485C000878030020BF
:10388C005C5B0008605B0008AC5C0008285C00080E
:10389C00345C0008545C0008685C0008745C000828
:1038AC00895C0008C15D0008D15D0008E15D00087D
:1038BC006C5B00081C5C0008700700208096980068
:1038CC00545B0008154800F0BFFA154B002218682D
:1038DC000A2100F043FB134800F0B6FA124800F03E
:1038EC00B3FA5DE6114800F0AFFA0F4800F0ACFAFD
:1038FC004FE60F4800F0A8FA0B4800F0A5FA41E695
:10390C000C4800F0A1FA084800F09EFA33E60A4889
:10391C0000F09AFA044800F097FA25E6045C0008D7
:10392C0010000020185C0008AC5C0008E45B000888
:10393C00C85B0008B45B00089C5B000802F0D0B8C0
:10394C0010B5A02182B00446022000F095FB50B9BE
:10395C004FF4A060FDF780FB0A4B01A80193FDF723
:10396C0085FB02B010BD084800F06EFA204600221C
:10397C000A2100F0F3FA054800F066FA044800F05A
:10398C0063FAE5E714010001F05D0008006000082F
:10399C00AC5C000870B50120FFF7D2FF00240123B6
:1039AC00064D074E2B60204634802C60FFF762F9E1
:1039BC004FF4E053204633802B6070BD405C0040D8
:1039CC008C4D002038B501220024054D054B2A6092
:1039DC0020461C60FFF7B4FF032320462B6038BD44
:1039EC00405C0040445C004000231C4A70B41468E6
:1039FC001B491C48A4B251F8042B92B240F8232066
:103A0C000133082BF7D144F4806124F001050C46F6
:103A1C00124BADB245F4806641F00101124A1C60B4
:103A2C0019601E6013685B05FCD54FF6FF3400234C
:103A3C000B49146050F82320013392B2082B41F843
:103A4C00042BF7D1054A45F481651560136870BCE9
:103A5C009BB243F004031360704700BF405C00400E
:103A6C00005C0040984D0020445C00404FF6FB7217
:103A7C004FF43F41024B186802401A6019607047BE
:103A8C00405C0040314B072870B418BF18701A788E
:103A9C00052A57D8DFE802F017274D3741035A782B
:103AAC00013AD2B25A705A7802F0FF014AB94FF675
:103ABC00EF7206252648274C0668324002601D70BE
:103ACC00216070BC7047234A1268002A37D14FF628
:103ADC00FB714FF43F4406201D4A156829401160C4
:103AEC0014601870EDE74FF6FB714FF43F4504245A
:103AFC000120174A166831401160164915601C7078
:103B0C00086070BC70475A78013AD2B25A705A7831
:103B1C00002AD6D104221A70D3E705240A200C49B6
:103B2C000A6892B242F010020A601C70587070BCA5
:103B3C00704702210322597070BC1A70704705221D
:103B4C001A70BEE706221A70BBE700BF944D002026
:103B5C00405C004000010020744B30B51B68744C75
:103B6C009BB22380238889B09BB2B3F5007F66D1CA
:103B7C004EF65F226F4D6B68013393426B6000F21F
:103B8C00BD806D4D22882B881A40900508D54FF6C4
:103B9C00FF50664A674910600A7A0132D2B20A7243
:103BAC0022881A4011045FD422881A40520507D586
:103BBC004FF6FF315D4A614B11605B6898472B886B
:103BCC0022881A40900429D422881A40D1042DD47A
:103BDC0022881A4012050AD5594B1B78002B47D066
:103BEC00FFF702FF4FF2FF72504B1A602B882288AE
:103BFC001340D80510D54FF6FF614C4A514B11605C
:103C0C001B68190438D400224A4BDA60072009B02B
:103C1C00BDE83040FFF736BF09B030BD4DF6FF713F
:103C2C00424A116022881A40D104D1D54EF6FF7257
:103C3C003E4B00201A60FFF725FF2B88C8E7A02118
:103C4C00002000F019FA00289BD03F4800F0FCF847
:103C5C0020880022102100F081F93C4800F0F4F893
:103C6C003B4800F0F1F88CE7FEF762FA2B889BE7F3
:103C7C000220FFF707FFB5E72E4DEB680133EB6031
:103C8C00EB68032BC2D952F8043C043A13F0080336
:103C9C00BCD112682F4992B22A6151F8042B08A8A2
:103CAC0000EB8300013392B2082B40F8202CF4D1A6
:103CBC002B69294943F001032B612B691B4A9BB2E9
:103CCC000B602B6923F001032B612B699BB20B60FA
:103CDC0013685B05FCD54FF6FF3000231D491060BF
:103CEC0008AA02EB830252F8202C013392B2082B63
:103CFC0041F8042BF4D10023EB6087E7A0210020CE
:103D0C0000F0BAF910B900236B603AE7134800F0E1
:103D1C009BF800220A21686800F020F9104800F096
:103D2C0093F80B4800F090F8EDE700BF445C0040BE
:103D3C00904D0020000100208C4D002098000020A8
:103D4C0028000020485C00400C5E00080060000861
:103D5C00AC5C0008005C0040405C0040245E000845
:103D6C00685B00084FF0800CF0B54FF44023002541
:103D7C004FF4E122144C154E154F85B0C4E90001E7
:103D8C00C7F884C030466946029300920195ADF89D
:103D9C000C50FDF711FA012240F225513046A56076
:103DAC00E56025616561FDF78DFA4FF4A060FDF7C4
:103DBC0053F9084B68460093FDF758F9304601213A
:103DCC00FDF774FA05B0F0BD140100200048004066
:103DDC0000E100E027020001034B5B688342CCBF8B
:103DEC0000200120704700BF14010020024BD9684D
:103DFC009A689142FBD1704714010020F9B12DE96A
:103E0C00F04104460E4D0F4F00EB0108AB68EA6819
:103E1C000133C3F3080393420CD0AE6894F800C08E
:103E2C002E44012240F22771384686F818C0AB6048
:103E3C00FDF748FA01344445E8D1BDE8F0817047FC
:103E4C001401002000480040F8B50578CDB10646B5
:103E5C000C4C0D4FA368E2680133C3F30803934283
:103E6C000BD0A168012204EB010C384640F22771FB
:103E7C008CF81850A360FDF725FA16F8015F002D99
:103E8C00E8D1F8BD1401002000480040002A60D0A1
:103E9C002DE9F04790460D46814686182D4C2E4F45
:103EAC00013E00F1FF3A1AF8012F1309092B94BFB8
:103EBC0003F1300003F13700A368E1680133C3F369
:103ECC0008038B420DD0A168012204EB010C8CF885
:103EDC00180040F227713846A360FDF7F3F99AF801
:103EEC00002002F00F02A368092A94BF02F13000EF
:103EFC0002F137000133E268C3F3080393420BD09D
:103F0C00A168012204EB010C8CF8180040F2277117
:103F1C003846A360FDF7D6F92DB108F1FF33AAEBB3
:103F2C000902934203D8B245BDD1BDE8F087A3681E
:103F3C00E2680133C3F308039342F4D0A068012272
:103F4C002044057640F227713846A360FDF7BAF994
:103F5C00E9E7704714010020004800402DE9F04FBC
:103F6C0093468BB0002844D13025012A8DF804509B
:103F7C004FF001060DF1040A53D937464FF03009C2
:103F8C00294CDFF8A880A368E2680133C3F3080367
:103F9C00934207F101070AD0A0680122204480F85F
:103FAC00189040F227714046A360FDF78BF9BB4592
:103FBC00E9D8023EB2441D4F0DF1030601E01AF898
:103FCC000159A368E2680133C3F3080393420BD091
:103FDC00A168012204EB010C384640F227718CF8E1
:103FEC001850A360FDF76EF9B245E8D10BB0BDE8EF
:103FFC00F08F0DF1040A5246002600E01846B0FB83
:10400C00F1F301FB1305EDB2092D94BF30353735B3
:10401C00EDB2814206F1010602F8015BEED95E4574
:10402C00ABD3014CC5E700BF140100200048004091
:10403C00F8B5051E06DB2846BDE8F84000220A212B
:10404C00FFF78CBF0A4CA368E2680133C3F3080383
:10405C0093420AD02D27A6680122264440F22771EC
:10406C0004483776A360FDF72DF96D42E3E700BFF6
:10407C0014010020004800402DE9F041594C6368C0
:10408C00834200F38780A368E2689B1AC3F308039A
:10409C00C3F500738B4207D2D4F8183200200133D9
:1040AC00C4F81832BDE8F081FFF7A8F9D4F818323B
:1040BC000546EBB128262020DFF83C814A4FA36847
:1040CC00E2680133C3F30803934209D0A1680122CB
:1040DC002144087640F227713846A360FDF7F2F8C8
:1040EC00002E5DD0304618F8016FE8E7C4F818626E
:1040FC00A668E3680136C6F308069E423ED13B48EB
:10410C000022A0FB05300A21800CFFF727FFA368D3
:10411C00E2680133C3F3080393420AD02E27A66842
:10412C000122264440F227712F483776A360FDF711
:10413C00C9F82E4B2E48A3FB05239B0C00FB1350F8
:10414C000A210622FFF70AFF20255D21294E264F62
:10415C00A368E2680133C3F30803934209D0A06853
:10416C0001222044017640F227713846A360FDF706
:10417C00A9F895B1294616F8015FE9E75B27A36812
:10418C000122234440F2277117481F76A660FDF7E1
:10419C0099F8B4E70020BDE8F0810120BDE8F0817A
:1041AC003246D4F818020A21FFF7D8FE72262020D6
:1041BC00DFF848800C4FA368E2680133C3F30803AF
:1041CC00934209D0A16801222144087640F227715C
:1041DC003846A360FDF776F8002E87D0304618F8E5
:1041EC00016FE8E7140100200048004083DE1B4308
:1041FC0040420F00555E0008395E00083D5E000825
:10420C00034B18695B69C01A00F03F00704700BF90
:10421C00140100200E4A30B4044610695369C01AC8
:10422C0000F03F00884228BF084670B1013C2118BD
:10423C005369134493F81C52536904F8015F01331A
:10424C0003F03F038C425361F2D130BC704700BF86
:10425C00140100201A4A70B4054610695369C01A3B
:10426C0010F03F000DD000245369234403F03F03AA
:10427C00134493F81C320D2B05D001348442F3D136
:10428C00002070BC7047A042FAD0A14286BF611CCE
:10429C00204601F1FF3071B16C1E21445369134467
:1042AC0093F81C62536904F8016F013303F03F0368
:1042BC008C425361F2D100232B5470BC704700BF69
:1042CC001401002038B580212D48FDF7C5F878B1D0
:1042DC002C4CE268A3689A424BD0E36828482344EC
:1042EC00197EFDF74BF8E3680133C3F30803E36071
:1042FC000E212348FDF7B0F8012832D020212048A8
:10430C00FDF7AAF800B938BD1D48FDF73BF81D4B69
:10431C00C0B21A691A4482F81C021A69013202F0FE
:10432C003F021A6119695A69914204D15A690132E2
:10433C0002F03F025A611A68002AE4D09C68DA68DD
:10434C000134C4F308049442DDD09D6801221D445D
:10435C00287640F227719C600948BDE83840FCF78C
:10436C00B1BF0E210648FDF777F80548FDF70AF8AE
:10437C00C4E7002240F227710148FCF7A3FFB7E71E
:10438C00004800401401002010B5064CE268A368F8
:10439C009A4205D0FFF796FFE268A3689A42F9D1DA
:1043AC0010BD00BF14010020704700BFFEE700BF26
:1043BC00FEE700BFFEE700BFFEE700BF704700BF8F
:1043CC00704700BF704700BF704700BFFFF7C4BB0A
:1043DC00FFF778BF01F0ACB830B5012183B00420F1
:1043EC00FDF714FC01210820FDF710FC0121102021
:1043FC00FDF70CFC01214FF48020FDF713FC01218B
:10440C004FF40070FDF702FC01214FF48060FDF7C2
:10441C00FDFB01214FF40060FDF7F8FB012108467C
:10442C00FDF7E8FB0020FDF769FB4FF40040FDF7BA
:10443C006BFB01214FF40000FDF7F4FB1D4D01A8AF
:10444C00FDF712FA1C4B01A9284601931B4CFDF7F2
:10445C00AFF901A8FDF708FA194B01A92046019301
:10446C00FDF7A6F904234FF400620DEB030120467F
:10447C00ADF804208DF80730FDF79AF901A8FDF787
:10448C00F3F9104B284601A90193FDF791F9032389
:10449C0001A92046ADF80430FDF78AF901A8FDF713
:1044AC00E3F9094B01A909480193FDF781F903B020
:1044BC0030BD00BF0008014000180318000C01407B
:1044CC0000040218FF00010000200210001001403F
:1044DC000D4B10B51B68A0210020DC78FFF7CCFD3C
:1044EC0008B9002010BD0948FFF7AEFC00221021CE
:1044FC002046FFF733FD0648FFF7A6FC0548FFF7FB
:10450C00A3FC002010BD00BF884D0020885E000871
:10451C0000600008AC5C000838B504460D4600206D
:10452C00A021FFF7A9FD28B9A5B9012C8CBF022049
:10453C00002038BD0848FFF787FC002210212046D8
:10454C00FFF70CFD0548FFF77FFC0548FFF77CFCE7
:10455C00002DEAD0022038BDAC5E000800600008D7
:10456C00AC5C000838B504460D460020A021FFF7CE
:10457C0083FD58B9A0210020FFF77EFDD0B91B2C7C
:10458C009DBF144B01201D55002038BD1248FFF76C
:10459C005BFC0A2100222046FFF7E0FC0F48FFF7E6
:1045AC0053FC0F48FFF750FCA0210020FFF764FDDF
:1045BC000028E4D00B48FFF747FC002210212846C6
:1045CC00FFF7CCFC0848FFF73FFC0548FFF73CFC25
:1045DC00D5E700BF64000020D45E0008006000082E
:1045EC00AC5C0008EC5E0008685B000838B5A021E4
:1045FC0004460020FFF740FDB0B9144B1B685A79F4
:10460C001B2A0FD812481349805C012208701979B3
:10461C001B2904D80E4D0F48695C8154013294B1AA
:10462C000C4838BD0022F2E70B48FFF70DFC0022C6
:10463C000A212046FFF792FC0848FFF705FC0848C2
:10464C00FFF702FCD9E71A82204638BD884D0020BE
:10465C006400002070030020FC5E0008006000086D
:10466C00AC5C000838B5A02105460020FFF704FD1E
:10467C0000286BD1A0210020FFF7FEFC3B4C00284A
:10468C0052D1A0210020FFF7F7FC00283CD1A0213B
:10469C000020FFF7F1FC38BBA0210020FFF7ECFC59
:1046AC0090B92268137803F07F03402B01D1012DC0
:1046BC0001D0022038BD00242D4B5482204693613A
:1046CC00FFF794FF204638BD2A48FFF7BDFB23684F
:1046DC000022D8881021FFF741FC2748FFF7B4FBD4
:1046EC002648FFF7B1FBDCE72548FFF7ADFB236855
:1046FC00002298881021FFF731FC1F48FFF7A4FB1C
:10470C001E48FFF7A1FBC7E71E48FFF79DFB236878
:10471C00002258881021FFF721FC1748FFF794FB63
:10472C001648FFF791FBB2E71748FFF78DFB23689C
:10473C0000221878102100F07F00FFF70FFC0E48C4
:10474C00FFF782FB0D48FFF77FFB9AE70F48FFF757
:10475C007BFB002210212846FFF700FC0648FFF7E0
:10476C0073FB0648FFF770FB84E700BF884D002001
:10477C00F94500086C5F000800600008AC5C00089C
:10478C00585F0008445F00082C5F0008105F0008A9
:10479C0010B5A02104460020FFF76EFC28B9204676
:1047AC00BDE810400B49FDF783BF0B48FFF74CFBEE
:1047BC000A2100222046FFF7D1FB0848FFF744FBF3
:1047CC000748FFF741FB2046BDE810400149FDF7C3
:1047DC006FBF00BF80000020805F000800600008F1
:1047EC00AC5C000810B5A02104460020FFF744FC87
:1047FC0028B92046BDE810400B49FDF759BF0B48BE
:10480C00FFF722FB0A2100222046FFF7A7FB0848EE
:10481C00FFF71AFB0748FFF717FB2046BDE81040CF
:10482C000149FDF745BF00BF88000020A05F0008CC
:10483C0000600008AC5C000808B5A0210220FFF75E
:10484C001BFC48B90022084B1B689A72FFF7A2F8B0
:10485C00BDE80840FDF714BC0448FFF7F5FA04481E
:10486C00FFF7F2FAEEE700BF884D0020C05F0008AA
:10487C00AC5C000838B5A0210120FFF7FDFBD8B9CE
:10488C001C4C1D4D6168402205EB81110120FDF788
:10489C0009FC0120FEF7A0FA0123A3606268174906
:1048AC001A4481FB0231D317C3EBE11303EB03135F
:1048BC00A2EB0313636038BD1148FFF7C5FA11482A
:1048CC00FFF7C2FA0B4C00220A214020FFF746FBEF
:1048DC000D48FFF7B9FA084D6068402205EB8010CF
:1048EC003A21FFF7D3FA0948FFF7AEFA0848FFF769
:1048FC00ABFAC7E770030020540900207978787868
:10490C00CC5F0008D45F0008545E0008685B0008A8
:10491C00AC5C000808B5A0210020FFF7ADFB00B986
:10492C0008BD0448FFF790FABDE808400248FFF7BD
:10493C008BBA00BFD85F0008AC5C000808B5A0219A
:10494C000020FFF799FB00B908BD0448FFF77CFA7B
:10495C00BDE808400248FFF777BA00BFE85F0008DF
:10496C00AC5C00082DE9F04F93B0FFF70DFDA021D2
:10497C000020FFF781FB002840F0228100219C4899
:10498C00FCF7B4F80220FCF795FE0028FAD10420BD
:10499C00FCF790FE0028FAD104469648FCF790FDEF
:1049AC009548FDF7A7F99548FDF7A4F99048FBF752
:1049BC00F7FC21460120FEF72DFB914D2021012013
:1049CC00FEF7ACF9A0210220EC606C60AC60FFF744
:1049DC0053FB8C4E002840F0E480A0210220FFF70E
:1049EC004BFB002840F0CE80A0210220FFF744FBB7
:1049FC00002840F0B880A0210220FFF73DFB0028E2
:104A0C0040F0A280FFF7C0FC0021FF270B46B6F850
:104A1C0002C0A6F81AC04CFA03F212F0010F12AA47
:104A2C00D8B20A4403F101031ABF02F8380C013161
:104A3C0007460A2BEFD1296100297FD07378002B10
:104A4C007CD07379002B79D03379082B00F03E8120
:104A5C000C2B40F0BC806C48FEF74AFD2B69012BF7
:104A6C0002DDDB0700F16B8133790C2B00F0E48065
:104A7C00082B00F05C81A0210220FFF7FDFA002832
:104A8C0040F046814FF4F07330790122B3FBF0F320
:104A9C00717A02200A318A40A0216A61AB61FFF76A
:104AAC00EBFA002840F02581A0210220FFF7E4FA60
:104ABC00002840F00F81FFF767FC0022802033793B
:104ACC00717903F00F0343EA0113EB774F4B2A770D
:104ADC0009920B92728B07932B69A5F81D204C4AF7
:104AEC00012B0C90089276DD4FF400714FF40062AC
:104AFC00AB69CDE90D120A934FF400532022002725
:104B0C0007A93C48CDE910370F92FCF771FD012144
:104B1C003848FCF79BFD7379C5F8E073013B092B12
:104B2C0000F21084DFE813F0D701CF010A02020271
:104B3C001202E101F101E901F9011F013548FEF70B
:104B4C00D7FC13B0BDE8F08F3348FFF77DF9002296
:104B5C000A213079FFF702FA3048FFF775F930482F
:104B6C00FFF772F94EE72F48FFF76EF900220A2182
:104B7C007079FFF7F3F92948FFF766F92848FFF732
:104B8C0063F938E72848FFF75FF9002202217088A3
:104B9C00FFF7E4F92148FFF757F92148FFF754F9DB
:104BAC0022E72248FFF750F9707822460A21FFF7D6
:104BBC00D5F91A48FFF748F91948FFF745F90CE7FA
:104BCC001B48FFF741F91648FFF73EF9D6E619489E
:104BDC00FEF78EFC42E700F058834FF480714FF4DF
:104BEC008062AB690D915B000A930E9284E700BF63
:104BFC00002C014008000240002401400028014024
:104C0C00700300206400002040420F004C2401403F
:104C1C009003002080841E0048600008685B000838
:104C2C00AC5C0008306000081860000804600008E4
:104C3C00F45F0008A08601002B69062B7FF41BAFE4
:104C4C00A0210420FFF718FA002840F02983A021A6
:104C5C000420FFF711FA002840F03883A02104202B
:104C6C00FFF70AFA002840F02A834FF002084FF0B1
:104C7C000109B6F81AC000214FF0FF0E0B464CFA92
:104C8C0003F212F0010F12AADFB202EB010A01F1DA
:104C9C00010001F1020203F101031DBF01460AF8F4
:104CAC00387C1046BE460A2BE9D109FA0EF312AA3B
:104CBC00114443EA0C0CB8F1010F01F838EC1FFA5F
:104CCC008CFC39D12861A6F81AC0D4E6B248FEF79C
:104CDC000FFCC3E6B148FFF7B7F800220A21A86918
:104CEC00FFF73CF9AE48FFF7AFF8AE48FFF7ACF86A
:104CFC00E1E6AD48FFF7A8F800220A216869FFF742
:104D0C002DF9A748FFF7A0F8A648FFF79DF8CBE6CA
:104D1C00A648FFF799F800220221708BFFF71EF9C5
:104D2C009F48FFF791F89F48FFF78EF8AAE62B698A
:104D3C00082B7FF4A0AE83E74FF001089BE7A0217E
:104D4C000420FFF799F9002840F008810123718BAA
:104D5C002A69BB4012A80B43511C0244738329617E
:104D6C0002F8387C80E62B69029300230393072317
:104D7C0001934FF47A73029A012A40F323820021A3
:104D8C00029A0291521003FB02F3013B9BB20022E8
:104D9C008749ADF820300B6886498748A1FB03137F
:104DAC009B0C013B07A9ADF82220ADF81C30ADF8E7
:104DBC001E20FBF70FFC01210222804BADF82210C4
:104DCC007D4807A90793ADF82420FBF759FC2B6904
:104DDC00012B40F3ED814FF4C0225B108DF82C3089
:104DEC000792039B002B00F0D1814FF4602201232A
:104DFC0009928DF821300023012207A970480A93EB
:104E0C008DF82020FCF7ACFF2B69012B00F3B5804B
:104E1C00029A002A40F0B1804FF0FF32F262DFF8C4
:104E2C00A0A1DFF8B0B1B14608E0029B83BB99F8B2
:104E3C000B30BB422B6908BFC9F82C6012AA1119A0
:104E4C009C4204F1010226469DF80480D4B280F203
:104E5C00158111F8387C5046394643462246FCF7FA
:104E6C00FDFFA0210220FFF707F90028DDD05846EE
:104E7C00FEF7EAFF00220A213846FFF76FF8514887
:104E8C00FEF7E2FF4748FEF7DFFF029B002BCED078
:104E9C0039464D4843462246FCF7E0FFA02102204C
:104EAC00FFF7EAF80028C2D05846FEF7CDFF0022E3
:104EBC000A213846FFF752F84448FEF7C5FF394837
:104ECC00FEF7C2FFB3E72B69029300230393012380
:104EDC00019302234FE72B69012B029300F005820B
:104EEC00012300220393019245E72B6902930023CF
:104EFC0003930723019332233DE72B69029300238D
:104F0C00039307230193C82335E72B6902930023EE
:104F1C0003930723019364232DE72B69029300234A
:104F2C000393072301934FF4FA7324E72B6902933D
:104F3C0000230393062301930A231CE72B69029396
:104F4C000023039304230193052314E72B69029395
:104F5C00002303930623019314230CE71C48FEF74C
:104F6C0073FF00220A213846FEF7F8FF0C48FEF7C3
:104F7C006BFF0C48FEF768FFE8E64FF4602307A9C7
:104F8C0011480993FCF7ECFE4FF0FF322B69F262EB
:104F9C00012B26DC43E700BF20A10700F8600008C6
:104FAC00685B0008AC5C0008E0600008C8600008A2
:104FBC001000002083DE1B43002C01406000010028
:104FCC00002401401C610008002801403C610008DD
:104FDC0064600008106100089A4508BFC6F82CB040
:104FEC002B69670012AA03EBD373D01907F1010BDD
:104FFC00621C12A9B4EB630F9DF804905944D4B20F
:10500C003DDA10F8388C11F838AC4B464146224644
:10501C00B948FCF723FF5146B8484B462246FCF7EB
:10502C001DFFA0210220FFF727F8C0B9A021022004
:10503C00FFF722F820B9F37A9845CDD1F762CFE784
:10504C00AF48FEF701FF00220A215046FEF786FF0B
:10505C00AC48FEF7F9FEAC48FEF7F6FEEBE7A848C5
:10506C00FEF7F2FE00220A214046FEF777FFA74822
:10507C00FEF7EAFEA448FEF7E7FED7E74E46FFF739
:10508C0083F9A0210220FEF7F7FF002840F0E18011
:10509C00A0210220FEF7F0FF002840F0A180A02103
:1050AC000220FEF7E9FF002840F0AF80A02102208B
:1050BC00FEF7E2FF002840F0BD80FFF765F9F36AC8
:1050CC00002BC0F2D58001218B48FCF77FFE01211B
:1050DC008948FCF771FE8848FCF78CFE864C20460C
:1050EC00FCF78EFE0128FAD08348FCF78DFE824C2B
:1050FC002046FCF78FFE0128FAD02B69012B01DC2E
:10510C00029BCBB101217D48FCF7ECFE01217B48D1
:10511C00FCF752FE7948FCF76DFE784C2046FCF704
:10512C006FFE0128FAD07548FCF76EFE734C2046D2
:10513C00FCF770FE0128FAD0A0210220FEF79CFF9C
:10514C00002846D1012206217148FCF78BFA4FF456
:10515C00A060FBF781FF6F4B07A80793FBF786FF57
:10516C0000237278C5F8E433C5E9FA33C5E9FC339A
:10517C00C5F8F8335AB301233363039B01215E480E
:10518C004BB1FCF74BFE13B0BDE8F08F039B0993BA
:10519C008DF821302FE6FCF7A5FE01215E48FBF7C8
:1051AC00A5FC01215C48FBF7ADFC13B0BDE8F08F0A
:1051BC00029ADBB2002A63D04FF4E0228DF82C3037
:1051CC0007920EE60022013B9BB20292DFE53263AE
:1051DC00D3E75248FEF738FE4B48FEF735FEB1E7F1
:1051EC004F48FEF731FE0A210022F07AFEF7B6FE98
:1051FC004C48FEF729FE4448FEF726FEA02102206B
:10520C00FEF73AFF00283FF451AF4748FEF71CFE6B
:10521C000A210022F06AFEF7A1FE4248FEF714FEB6
:10522C003948FEF711FEA0210220FEF725FF0028C9
:10523C003FF443AF3D48FEF707FE00220A21707889
:10524C00FEF78CFE3748FEF7FFFD2F48FEF7FCFDFE
:10525C0033E73748FEF7F8FD00220A21B07AFEF753
:10526C007DFE3048FEF7F0FD2748FEF7EDFD0FE719
:10527C00A0210420FEF700FF58B90023F36222E7B7
:10528C00029A8DF82C300792ABE501297FF4A5AC7E
:10529C002AE42848FEF7D8FD1B48FEF7D5FDECE7BD
:1052AC002548FEF7D1FD00220A213079FEF756FE83
:1052BC001C48FEF7C9FD1448FEF7C6FDC7E41F489D
:1052CC00FEF7C2FD1048FEF7BFFDCEE41C48FEF70A
:1052DC00BBFD00220A212869FEF740FE1148FEF7AB
:1052EC00B3FD0948FEF7B0FDB8E40023029A019320
:1052FC00C5F8E02303924AE5002401400028014050
:10530C00106100082C610008AC5C00081C610008EE
:10531C00080002400B000001002C0140DC61000879
:10532C0064610008685B00088061000898610008EF
:10533C0058610008A461000884600008A46000089B
:10534C009860000800232A690393CDE901320123F8
:10535C0011E500BF10B5A02104460020FEF78CFE1D
:10536C00A0B9A0210020FEF787FE18BBA0210020C9
:10537C00FEF782FE002835D1A0210020FEF77CFE2E
:10538C00002845D1012C55D0022010BD3248FEF723
:10539C005BFD102100222046FEF7E0FD2F48FEF7B2
:1053AC0053FD2F48FEF750FDA0210020FEF764FEB0
:1053BC000028DBD02B48FEF747FD2B4B10211B6838
:1053CC000022187800F07F00FEF7C8FD2348FEF796
:1053DC003BFD2348FEF738FDA0210020FEF74CFED4
:1053EC000028C9D02148FEF72FFD1F4B10211B6848
:1053FC0000225888FEF7B2FD1848FEF725FD184824
:10540C00FEF722FDA0210020FEF736FE0028B9D0C1
:10541C001748FEF719FD144B00221B6810219888C1
:10542C00FEF79CFD0D48FEF70FFD0D48FEF70CFD39
:10543C00012CA9D10C4C2368D9785879FFF792F834
:10544C0030B9236899781879FFF78CF800289BD02D
:10545C00FFF788FA002010BDF46100080060000816
:10546C00AC5C00082C5F0008884D0020106200081E
:10547C002462000838B5A0210220FEF7FDFD0028AB
:10548C0044D100248025254B20461B685D725C812D
:10549C00FDF70EFC20464FF40071FDF727FC20466B
:1054AC001021FDF73BFC20464021FDF787FD2946E6
:1054BC002046FDF773FD2046FDF7D6FC184B204621
:1054CC0093F86010FDF7C8FD2046FDF799FC2146C6
:1054DC000120FDF70BFCC0210120FDF75FFD2146EB
:1054EC000120FDF797FD20210120FDF717FC214637
:1054FC000120FDF72DFC2046FDF78EFBFFF732FA5D
:10550C00084BC3F8FC43C3F8004438BD0648FEF70B
:10551C009BFC0648FEF798FCB3E700BF884D0020C3
:10552C00640000207003002038620008AC5C0008A6
:10553C002DE9F04FC34D89B00420EE68FCF7BAF8A2
:10554C00012800F0B3800220FCF7B4F8012802D047
:10555C0009B0BDE8F08FAB6905F12004022004EB23
:10556C004304FCF7A9F82B7FD5F8FC03013303F0B7
:10557C007F032B77AA69DFF8DCE2E969D5F8E03321
:10558C00B60102EB000C4EF806100EEB060BC5F83C
:10559C00FCC373B1AC4E5AB100213046043C54F8F4
:1055AC00043F02314FEA33438A4240F8043BF6D8B9
:1055BC003446D5F8E863A54F002E7DD13B6BF3B193
:1055CC00B87AFB6A013834F81310042800F27E8292
:1055DC00DFE810F018022B020002C60189016346B5
:1055EC00CDE90197DDF814B0B146039F069E0BB1CF
:1055FC00C5F8F493019B13B1029BC5F8F833EB7F0C
:10560C00C5F8E46303F00F03023B0BF104020A2B11
:10561C002BD8DFE803F0C32AA32A2A2A842A2A2AB1
:10562C000600D5F818C0BCF1000F1ED00021F88878
:10563C003F7A0BF1070EA61C36F8112034F8113006
:10564C00121ABA401B1A02F00F08BB40023148EA8A
:10565C00031812091B0961450EF8012C0EF8028C77
:10566C000EF8033C0EF1030EE6D3EA6878490132DA
:10567C0081FB0231D317C3EBE113D5F8E41303EB31
:10568C000313A2EB031311B1AA68002A43D1EB60F8
:10569C00D5F8E433002B3FF45BAFAB68002B7FF401
:1056AC0057AF09B0BDE8F04FFFF7E4B80420FCF7A2
:1056BC0003F805F1200456E7D7F80E20286922EAF2
:1056CC00E27200FB02F2D5F8EC33ACEB03039A4226
:1056DC0000F29D80D5F8F023D5F80034002A00F0B4
:1056EC00FE809A1A6B6903FB00F0904200F2B480C2
:1056FC0000267B78C5F8E463C5E9FA66C5E9FC6663
:10570C00C5F8F863002B00F09980012B00F096800F
:10571C0001233B6373E76A689A42B8D1B8E7D5F8BE
:10572C0018C0BCF1000FA0D00021F8883F7A0BF113
:10573C00060EA61C36F8112034F81130121A1B1A5A
:10574C00BA40BB40023112091B0961450EF8012C0D
:10575C000EF8023C0EF1020EECD386E7D5F818E0F9
:10576C00BEF1000F81D00020B7F806C03F7AA61C0E
:10577C0034F8101036F81030A1EB0C01B940A3EB43
:10578C000C030909BB4021F00F01C3F303230230C2
:10579C000B43704502F8013BEAD366E7AE69002E75
:1057AC003FF463AF0020F9883F7A083434F8083CA2
:1057BC0034F806EC34F804CC5B1AAEEB010E34F87A
:1057CC00028CBB400EFA07FEACEB010C1B094FEA36
:1057DC009E1E0CFA07FC0EF0300E23F03F034FEA2E
:1057EC001C2CA8EB010843EA0E030CF00C0C08FA75
:1057FC0007FE43EA0C030430CEF3812C43EA0C037E
:10580C00B04202F8013B04F10804CFD32DE7EA685B
:10581C00002AC0F21D810E49D31781FB0201C3EB94
:10582C00E11303EB0313A2EB03130EEB83110A78C2
:10583C006B6062F07F030B700026E0E600263E638F
:10584C00DDE600BF70030020740700206400002018
:10585C0079787878540900200126D0E66346CDE9A2
:10586C000197DDF814B0B146DDF81CC0069E039F0D
:10587C000BB1C5F8F493019B13B1029BC5F8F83337
:10588C000123C5F8E833D7F80E100029C0F2FC80CC
:10589C000022EB689B1A13F5887300F1FB808E4A8B
:1058AC00DE1782FB0382C6EBE21606EB0616A3EBB1
:1058BC0006160EEB86124FF0000821EAE17100FB90
:1058CC0001F113786E6063F07F03AE68C5F8ECC32A
:1058DC001370C5F8F083002999D1D5F80034002253
:1058EC00C5F8F033FEE69A427FF789AE00200190AE
:1058FC000490D7F81200D5F8F4930390D7F816005B
:10590C00CDE905B6CDF81CC04E464FF0000C00900A
:10591C00D5F8F803B7F80CA00290DDF80CB0884667
:10592C0003972869E146029F76B1C24580F09380C7
:10593C004FF00109013703449A4240F3AD804146D0
:10594C0034F81380002EF0D18A4540F28F80C24586
:10595C0080F08C804FF001093746CC464E46EAE782
:10596C009A427FF74CAE002001900490D7F81200B9
:10597C00D5F8F4930390D7F81600CDE905B64E464A
:10598C004FF000090090D5F8F803B7F80CA002907E
:10599C00CDF81CC0DDF80CB0884603972869CC46BE
:1059AC00029F6EB1C24564D94FF00109013703441F
:1059BC009A427FF714AE414634F81380002EF1D191
:1059CC008A455ED2C2455CD94FF001093746CC46B8
:1059DC004E46ECE7286903449A427FF710AEB7F8BD
:1059EC000C80884534F81390034402D9C845FFF461
:1059FC0047AF884502D2C8453FF642AF9A42494666
:105A0C00EFDCFCE5286903449A427FF7F8ADB7F860
:105A1C000C90894534F81380034402D9C145FFF436
:105A2C002FAF9A424146F4DCE9E5286903449A42D7
:105A3C007FF7E5ADB7F80C90894534F81380034433
:105A4C0002D2C1453FF61CAF9A424146F4DCD6E582
:105A5C0000232249EBE6BB4507D8009900293FF407
:105A6C00FDAE0099B942BFF4F9AE00264FF0010C1F
:105A7C0061E7BB4504D80099D1B10099B94217D25E
:105A8C0000264FF0010C92E792FBF0F24B4293FB95
:105A9C00F2F2FEE6114A0EE76346CDE90197DDF816
:105AAC0014B0B146039F069E002B7FF4A1ADA1E577
:105ABC006346CDE90197DDF814B0B146DDF81CC0A2
:105ACC00069E039F002B7FF4D4AED4E601232869F5
